{
    "_format": "hh-sol-artifact-1",
    "contractName": "CryptoPepeWrapper",
    "sourceName": "contracts/CryptoPepeWrapper.sol",
    "abi": [
        {
            "inputs": [
                {
                    "internalType": "address",
                    "name": "_cryptoPepeAddress",
                    "type": "address"
                }
            ],
            "stateMutability": "nonpayable",
            "type": "constructor"
        },
        {
            "inputs": [],
            "name": "EmptyArray",
            "type": "error"
        },
        {
            "inputs": [
                {
                    "internalType": "uint256",
                    "name": "requested",
                    "type": "uint256"
                },
                {
                    "internalType": "uint256",
                    "name": "correct",
                    "type": "uint256"
                }
            ],
            "name": "ExpensivePepeTransfer",
            "type": "error"
        },
        {
            "inputs": [],
            "name": "NotPepeOwner",
            "type": "error"
        },
        {
            "inputs": [],
            "name": "OutOfRange",
            "type": "error"
        },
        {
            "anonymous": false,
            "inputs": [
                {
                    "indexed": true,
                    "internalType": "address",
                    "name": "owner",
                    "type": "address"
                },
                {
                    "indexed": true,
                    "internalType": "address",
                    "name": "approved",
                    "type": "address"
                },
                {
                    "indexed": true,
                    "internalType": "uint256",
                    "name": "tokenId",
                    "type": "uint256"
                }
            ],
            "name": "Approval",
            "type": "event"
        },
        {
            "anonymous": false,
            "inputs": [
                {
                    "indexed": true,
                    "internalType": "address",
                    "name": "owner",
                    "type": "address"
                },
                {
                    "indexed": true,
                    "internalType": "address",
                    "name": "operator",
                    "type": "address"
                },
                {
                    "indexed": false,
                    "internalType": "bool",
                    "name": "approved",
                    "type": "bool"
                }
            ],
            "name": "ApprovalForAll",
            "type": "event"
        },
        {
            "anonymous": false,
            "inputs": [
                {
                    "indexed": false,
                    "internalType": "uint256",
                    "name": "_fromTokenId",
                    "type": "uint256"
                },
                {
                    "indexed": false,
                    "internalType": "uint256",
                    "name": "_toTokenId",
                    "type": "uint256"
                }
            ],
            "name": "BatchMetadataUpdate",
            "type": "event"
        },
        {
            "anonymous": false,
            "inputs": [
                {
                    "indexed": true,
                    "internalType": "address",
                    "name": "sender",
                    "type": "address"
                },
                {
                    "indexed": true,
                    "internalType": "address",
                    "name": "receiver",
                    "type": "address"
                },
                {
                    "indexed": false,
                    "internalType": "uint256[]",
                    "name": "tokenIds",
                    "type": "uint256[]"
                }
            ],
            "name": "BatchUnwrap",
            "type": "event"
        },
        {
            "anonymous": false,
            "inputs": [
                {
                    "indexed": true,
                    "internalType": "address",
                    "name": "sender",
                    "type": "address"
                },
                {
                    "indexed": false,
                    "internalType": "uint256[]",
                    "name": "tokenIds",
                    "type": "uint256[]"
                }
            ],
            "name": "BatchWrap",
            "type": "event"
        },
        {
            "anonymous": false,
            "inputs": [
                {
                    "indexed": true,
                    "internalType": "address",
                    "name": "previousOwner",
                    "type": "address"
                },
                {
                    "indexed": true,
                    "internalType": "address",
                    "name": "newOwner",
                    "type": "address"
                }
            ],
            "name": "OwnershipTransferred",
            "type": "event"
        },
        {
            "anonymous": false,
            "inputs": [
                {
                    "indexed": true,
                    "internalType": "address",
                    "name": "from",
                    "type": "address"
                },
                {
                    "indexed": true,
                    "internalType": "address",
                    "name": "to",
                    "type": "address"
                },
                {
                    "indexed": true,
                    "internalType": "uint256",
                    "name": "tokenId",
                    "type": "uint256"
                }
            ],
            "name": "Transfer",
            "type": "event"
        },
        {
            "anonymous": false,
            "inputs": [
                {
                    "indexed": true,
                    "internalType": "address",
                    "name": "from",
                    "type": "address"
                },
                {
                    "indexed": true,
                    "internalType": "address",
                    "name": "to",
                    "type": "address"
                },
                {
                    "indexed": true,
                    "internalType": "uint256",
                    "name": "tokenId",
                    "type": "uint256"
                }
            ],
            "name": "Unwrap",
            "type": "event"
        },
        {
            "anonymous": false,
            "inputs": [
                {
                    "indexed": true,
                    "internalType": "address",
                    "name": "sender",
                    "type": "address"
                },
                {
                    "indexed": true,
                    "internalType": "uint256",
                    "name": "tokenId",
                    "type": "uint256"
                }
            ],
            "name": "Wrap",
            "type": "event"
        },
        {
            "inputs": [
                {
                    "internalType": "address",
                    "name": "to",
                    "type": "address"
                },
                {
                    "internalType": "uint256",
                    "name": "tokenId",
                    "type": "uint256"
                }
            ],
            "name": "approve",
            "outputs": [],
            "stateMutability": "nonpayable",
            "type": "function"
        },
        {
            "inputs": [
                {
                    "internalType": "address",
                    "name": "owner",
                    "type": "address"
                }
            ],
            "name": "balanceOf",
            "outputs": [
                {
                    "internalType": "uint256",
                    "name": "",
                    "type": "uint256"
                }
            ],
            "stateMutability": "view",
            "type": "function"
        },
        {
            "inputs": [],
            "name": "baseTokenURI",
            "outputs": [
                {
                    "internalType": "string",
                    "name": "",
                    "type": "string"
                }
            ],
            "stateMutability": "view",
            "type": "function"
        },
        {
            "inputs": [
                {
                    "internalType": "uint256[]",
                    "name": "_tokenIds",
                    "type": "uint256[]"
                },
                {
                    "internalType": "address",
                    "name": "_to",
                    "type": "address"
                }
            ],
            "name": "batchUnwrap",
            "outputs": [],
            "stateMutability": "nonpayable",
            "type": "function"
        },
        {
            "inputs": [
                {
                    "internalType": "uint256[]",
                    "name": "_tokenIds",
                    "type": "uint256[]"
                }
            ],
            "name": "batchWrap",
            "outputs": [],
            "stateMutability": "nonpayable",
            "type": "function"
        },
        {
            "inputs": [
                {
                    "internalType": "uint256",
                    "name": "tokenId",
                    "type": "uint256"
                }
            ],
            "name": "getApproved",
            "outputs": [
                {
                    "internalType": "address",
                    "name": "",
                    "type": "address"
                }
            ],
            "stateMutability": "view",
            "type": "function"
        },
        {
            "inputs": [
                {
                    "internalType": "address",
                    "name": "owner",
                    "type": "address"
                },
                {
                    "internalType": "address",
                    "name": "operator",
                    "type": "address"
                }
            ],
            "name": "isApprovedForAll",
            "outputs": [
                {
                    "internalType": "bool",
                    "name": "",
                    "type": "bool"
                }
            ],
            "stateMutability": "view",
            "type": "function"
        },
        {
            "inputs": [],
            "name": "name",
            "outputs": [
                {
                    "internalType": "string",
                    "name": "",
                    "type": "string"
                }
            ],
            "stateMutability": "view",
            "type": "function"
        },
        {
            "inputs": [],
            "name": "owner",
            "outputs": [
                {
                    "internalType": "address",
                    "name": "",
                    "type": "address"
                }
            ],
            "stateMutability": "view",
            "type": "function"
        },
        {
            "inputs": [
                {
                    "internalType": "uint256",
                    "name": "tokenId",
                    "type": "uint256"
                }
            ],
            "name": "ownerOf",
            "outputs": [
                {
                    "internalType": "address",
                    "name": "",
                    "type": "address"
                }
            ],
            "stateMutability": "view",
            "type": "function"
        },
        {
            "inputs": [],
            "name": "renounceOwnership",
            "outputs": [],
            "stateMutability": "nonpayable",
            "type": "function"
        },
        {
            "inputs": [
                {
                    "internalType": "address",
                    "name": "from",
                    "type": "address"
                },
                {
                    "internalType": "address",
                    "name": "to",
                    "type": "address"
                },
                {
                    "internalType": "uint256",
                    "name": "tokenId",
                    "type": "uint256"
                }
            ],
            "name": "safeTransferFrom",
            "outputs": [],
            "stateMutability": "nonpayable",
            "type": "function"
        },
        {
            "inputs": [
                {
                    "internalType": "address",
                    "name": "from",
                    "type": "address"
                },
                {
                    "internalType": "address",
                    "name": "to",
                    "type": "address"
                },
                {
                    "internalType": "uint256",
                    "name": "tokenId",
                    "type": "uint256"
                },
                {
                    "internalType": "bytes",
                    "name": "data",
                    "type": "bytes"
                }
            ],
            "name": "safeTransferFrom",
            "outputs": [],
            "stateMutability": "nonpayable",
            "type": "function"
        },
        {
            "inputs": [
                {
                    "internalType": "address",
                    "name": "operator",
                    "type": "address"
                },
                {
                    "internalType": "bool",
                    "name": "approved",
                    "type": "bool"
                }
            ],
            "name": "setApprovalForAll",
            "outputs": [],
            "stateMutability": "nonpayable",
            "type": "function"
        },
        {
            "inputs": [
                {
                    "internalType": "string",
                    "name": "baseURI_",
                    "type": "string"
                }
            ],
            "name": "setBaseURI",
            "outputs": [],
            "stateMutability": "nonpayable",
            "type": "function"
        },
        {
            "inputs": [
                {
                    "internalType": "bytes4",
                    "name": "interfaceId",
                    "type": "bytes4"
                }
            ],
            "name": "supportsInterface",
            "outputs": [
                {
                    "internalType": "bool",
                    "name": "",
                    "type": "bool"
                }
            ],
            "stateMutability": "view",
            "type": "function"
        },
        {
            "inputs": [],
            "name": "symbol",
            "outputs": [
                {
                    "internalType": "string",
                    "name": "",
                    "type": "string"
                }
            ],
            "stateMutability": "view",
            "type": "function"
        },
        {
            "inputs": [
                {
                    "internalType": "uint256",
                    "name": "index",
                    "type": "uint256"
                }
            ],
            "name": "tokenByIndex",
            "outputs": [
                {
                    "internalType": "uint256",
                    "name": "",
                    "type": "uint256"
                }
            ],
            "stateMutability": "view",
            "type": "function"
        },
        {
            "inputs": [
                {
                    "internalType": "address",
                    "name": "owner",
                    "type": "address"
                },
                {
                    "internalType": "uint256",
                    "name": "index",
                    "type": "uint256"
                }
            ],
            "name": "tokenOfOwnerByIndex",
            "outputs": [
                {
                    "internalType": "uint256",
                    "name": "",
                    "type": "uint256"
                }
            ],
            "stateMutability": "view",
            "type": "function"
        },
        {
            "inputs": [
                {
                    "internalType": "uint256",
                    "name": "tokenId",
                    "type": "uint256"
                }
            ],
            "name": "tokenURI",
            "outputs": [
                {
                    "internalType": "string",
                    "name": "",
                    "type": "string"
                }
            ],
            "stateMutability": "view",
            "type": "function"
        },
        {
            "inputs": [],
            "name": "totalSupply",
            "outputs": [
                {
                    "internalType": "uint256",
                    "name": "",
                    "type": "uint256"
                }
            ],
            "stateMutability": "view",
            "type": "function"
        },
        {
            "inputs": [
                {
                    "internalType": "address",
                    "name": "from",
                    "type": "address"
                },
                {
                    "internalType": "address",
                    "name": "to",
                    "type": "address"
                },
                {
                    "internalType": "uint256",
                    "name": "tokenId",
                    "type": "uint256"
                }
            ],
            "name": "transferFrom",
            "outputs": [],
            "stateMutability": "nonpayable",
            "type": "function"
        },
        {
            "inputs": [
                {
                    "internalType": "address",
                    "name": "newOwner",
                    "type": "address"
                }
            ],
            "name": "transferOwnership",
            "outputs": [],
            "stateMutability": "nonpayable",
            "type": "function"
        },
        {
            "inputs": [
                {
                    "internalType": "uint256",
                    "name": "_tokenId",
                    "type": "uint256"
                },
                {
                    "internalType": "address",
                    "name": "_to",
                    "type": "address"
                }
            ],
            "name": "unwrap",
            "outputs": [],
            "stateMutability": "nonpayable",
            "type": "function"
        },
        {
            "inputs": [
                {
                    "internalType": "uint256",
                    "name": "_tokenId",
                    "type": "uint256"
                }
            ],
            "name": "wrap",
            "outputs": [],
            "stateMutability": "nonpayable",
            "type": "function"
        }
    ],
    "bytecode": "0x60806040523480156200001157600080fd5b50604051620031ab380380620031ab833981016040819052620000349162000168565b6040518060400160405280601081526020016f086e4f2e0e8dea0cae0cae640646062760831b815250604051806040016040528060048152602001630435045560e41b81525081600090816200008b91906200023f565b5060016200009a82826200023f565b505050620000b7620000b16200011260201b60201c565b62000116565b600c80546001600160a01b0383166001600160a01b03199182168117909255600d8054909116909117905560408051606081019091526036808252620031756020830139600e906200010a90826200023f565b50506200030b565b3390565b600b80546001600160a01b038381166001600160a01b0319831681179093556040519116919082907f8be0079c531659141344cd1fd0a4f28419497f9722a3daafe3b4186f6b6457e090600090a35050565b6000602082840312156200017b57600080fd5b81516001600160a01b03811681146200019357600080fd5b9392505050565b634e487b7160e01b600052604160045260246000fd5b600181811c90821680620001c557607f821691505b602082108103620001e657634e487b7160e01b600052602260045260246000fd5b50919050565b601f8211156200023a57600081815260208120601f850160051c81016020861015620002155750805b601f850160051c820191505b81811015620002365782815560010162000221565b5050505b505050565b81516001600160401b038111156200025b576200025b6200019a565b62000273816200026c8454620001b0565b84620001ec565b602080601f831160018114620002ab5760008415620002925750858301515b600019600386901b1c1916600185901b17855562000236565b600085815260208120601f198616915b82811015620002dc57888601518255948401946001909101908401620002bb565b5085821015620002fb5787850151600019600388901b60f8161c191681555b5050505050600190811b01905550565b612e5a806200031b6000396000f3fe60806040523480156200001157600080fd5b5060043610620001c55760003560e01c80636352211e1162000101578063a22cb46511620000a3578063d547cfb7116200007a578063d547cfb714620003bc578063e985e9c514620003c6578063ea598cb01462000405578063f2fde38b146200041c57600080fd5b8063a22cb4651462000377578063b88d4fde146200038e578063c87b56dd14620003a557600080fd5b80637647691d11620000d85780637647691d14620003445780638da5cb5b146200035b57806395d89b41146200036d57600080fd5b80636352211e146200030c57806370a082311462000323578063715018a6146200033a57600080fd5b806323b872dd116200016b578063440230d41162000142578063440230d414620002c75780634f6ccce714620002de57806355f804b314620002f557600080fd5b806323b872dd14620002825780632f745c59146200029957806342842e0e14620002b057600080fd5b8063095ea7b311620001a0578063095ea7b3146200023f57806312286760146200025857806318160ddd146200026f57600080fd5b806301ffc9a714620001ca57806306fdde0314620001f6578063081812fc146200020f575b600080fd5b620001e1620001db36600462002447565b62000433565b60405190151581526020015b60405180910390f35b620002006200047a565b604051620001ed9190620024bb565b6200022662000220366004620024d0565b62000514565b6040516001600160a01b039091168152602001620001ed565b620002566200025036600462002507565b6200053d565b005b620002566200026936600462002583565b6200067d565b6008545b604051908152602001620001ed565b6200025662000293366004620025dd565b6200075c565b62000273620002aa36600462002507565b620007e9565b62000256620002c1366004620025dd565b62000895565b62000256620002d83660046200261e565b620008b2565b62000273620002ef366004620024d0565b62000985565b6200025662000306366004620026f7565b62000a2f565b620002266200031d366004620024d0565b62000a86565b620002736200033436600462002745565b62000aed565b6200025662000b89565b620002566200035536600462002763565b62000ba1565b600b546001600160a01b031662000226565b6200020062000be9565b6200025662000388366004620027a1565b62000bfa565b620002566200039f366004620027dd565b62000c0b565b62000200620003b6366004620024d0565b62000c9f565b6200020062000cac565b620001e1620003d736600462002862565b6001600160a01b03918216600090815260056020908152604080832093909416825291909152205460ff1690565b6200025662000416366004620024d0565b62000cbd565b620002566200042d36600462002745565b62000cf8565b60006001600160e01b031982167f49064906000000000000000000000000000000000000000000000000000000001480620004745750620004748262000d8e565b92915050565b6060600080546200048b9062002891565b80601f0160208091040260200160405190810160405280929190818152602001828054620004b99062002891565b80156200050a5780601f10620004de576101008083540402835291602001916200050a565b820191906000526020600020905b815481529060010190602001808311620004ec57829003601f168201915b5050505050905090565b6000620005218262000dcf565b506000908152600460205260409020546001600160a01b031690565b60006200054a8262000a86565b9050806001600160a01b0316836001600160a01b031603620005d95760405162461bcd60e51b815260206004820152602160248201527f4552433732313a20617070726f76616c20746f2063757272656e74206f776e6560448201527f720000000000000000000000000000000000000000000000000000000000000060648201526084015b60405180910390fd5b336001600160a01b0382161480620005f85750620005f88133620003d7565b6200066c5760405162461bcd60e51b815260206004820152603d60248201527f4552433732313a20617070726f76652063616c6c6572206973206e6f7420746f60448201527f6b656e206f776e6572206f7220617070726f76656420666f7220616c6c0000006064820152608401620005d0565b62000678838362000e35565b505050565b6000829003620006b9576040517f521299a900000000000000000000000000000000000000000000000000000000815260040160405180910390fd5b8160005b8181101562000706576000858583818110620006dd57620006dd620028cd565b905060200201359050620006f2818562000eb2565b50620006fe81620028f9565b9050620006bd565b50816001600160a01b0316336001600160a01b03167f64c221819e960bac4cb845166d469384d248ca7cbd6a5119950e69b1506c486486866040516200074e92919062002916565b60405180910390a350505050565b62000768338262001041565b620007dc5760405162461bcd60e51b815260206004820152602d60248201527f4552433732313a2063616c6c6572206973206e6f7420746f6b656e206f776e6560448201527f72206f7220617070726f766564000000000000000000000000000000000000006064820152608401620005d0565b62000678838383620010c6565b6000620007f68362000aed565b82106200086c5760405162461bcd60e51b815260206004820152602b60248201527f455243373231456e756d657261626c653a206f776e657220696e646578206f7560448201527f74206f6620626f756e64730000000000000000000000000000000000000000006064820152608401620005d0565b506001600160a01b03919091166000908152600660209081526040808320938352929052205490565b620006788383836040518060200160405280600081525062000c0b565b6000819003620008ee576040517f521299a900000000000000000000000000000000000000000000000000000000815260040160405180910390fd5b8060005b818110156200093a576000848483818110620009125762000912620028cd565b905060200201359050620009268162001315565b506200093281620028f9565b9050620008f2565b50336001600160a01b03167f8ed5d8309b0c25f09161053d417ad70cf3145b32c46b88a86cf734a8524ccdc884846040516200097892919062002916565b60405180910390a2505050565b60006200099160085490565b821062000a075760405162461bcd60e51b815260206004820152602c60248201527f455243373231456e756d657261626c653a20676c6f62616c20696e646578206f60448201527f7574206f6620626f756e647300000000000000000000000000000000000000006064820152608401620005d0565b6008828154811062000a1d5762000a1d620028cd565b90600052602060002001549050919050565b62000a396200158a565b600e62000a478282620029bb565b50604080516001815261157860208201527f6bd5c950a8d8df17f772f5af37cb3655737899cbf903264b9795592da439661c910160405180910390a150565b6000818152600260205260408120546001600160a01b031680620004745760405162461bcd60e51b815260206004820152601860248201527f4552433732313a20696e76616c696420746f6b656e20494400000000000000006044820152606401620005d0565b60006001600160a01b03821662000b6d5760405162461bcd60e51b815260206004820152602960248201527f4552433732313a2061646472657373207a65726f206973206e6f74206120766160448201527f6c6964206f776e657200000000000000000000000000000000000000000000006064820152608401620005d0565b506001600160a01b031660009081526003602052604090205490565b62000b936200158a565b62000b9f6000620015e6565b565b62000bad828262000eb2565b60405182906001600160a01b0383169033907fbe8e6aacbb5d99c99f1992d91d807f570d0acacabee02374369ed42710dc669890600090a45050565b6060600180546200048b9062002891565b62000c0733838362001645565b5050565b62000c17338362001041565b62000c8b5760405162461bcd60e51b815260206004820152602d60248201527f4552433732313a2063616c6c6572206973206e6f7420746f6b656e206f776e6560448201527f72206f7220617070726f766564000000000000000000000000000000000000006064820152608401620005d0565b62000c998484848462001733565b50505050565b60606200047482620017c2565b6060600e80546200048b9062002891565b62000cc88162001315565b604051819033907fb61d00fdfee32467c7d81db64c811ae60c104c346debf36a14afe84b8fce59e590600090a350565b62000d026200158a565b6001600160a01b03811662000d805760405162461bcd60e51b815260206004820152602660248201527f4f776e61626c653a206e6577206f776e657220697320746865207a65726f206160448201527f64647265737300000000000000000000000000000000000000000000000000006064820152608401620005d0565b62000d8b81620015e6565b50565b60006001600160e01b031982167f780e9d630000000000000000000000000000000000000000000000000000000014806200047457506200047482620018cf565b6000818152600260205260409020546001600160a01b031662000d8b5760405162461bcd60e51b815260206004820152601860248201527f4552433732313a20696e76616c696420746f6b656e20494400000000000000006044820152606401620005d0565b6000818152600460205260409020805473ffffffffffffffffffffffffffffffffffffffff19166001600160a01b038416908117909155819062000e798262000a86565b6001600160a01b03167f8c5be1e5ebec7d5bd14f71427d1e84f3dd0314c0f7b2291e5b200ac8c7c3b92560405160405180910390a45050565b3362000ebe8362000a86565b6001600160a01b03161462000eff576040517f4e643e4d00000000000000000000000000000000000000000000000000000000815260040160405180910390fd5b600062000f0c836200196d565b60008062000f1a3062001978565b8051602080830191909120604080517fff00000000000000000000000000000000000000000000000000000000000000818501523060601b6bffffffffffffffffffffffff19166021820152603581018a905260558082019390935281518082039093018352607501905280519101209350833b925090508162000faf578481516020830134f59250823b62000faf57600080fd5b600c546040517fbeabacc80000000000000000000000000000000000000000000000000000000081526001600160a01b039182166004820152858216602482015260448101879052849182169063beabacc890606401600060405180830381600087803b1580156200102057600080fd5b505af115801562001035573d6000803e3d6000fd5b50505050505050505050565b6000806200104f8362000a86565b9050806001600160a01b0316846001600160a01b031614806200109757506001600160a01b0380821660009081526005602090815260408083209388168352929052205460ff165b80620010be5750836001600160a01b0316620010b38462000514565b6001600160a01b0316145b949350505050565b826001600160a01b0316620010db8262000a86565b6001600160a01b031614620011595760405162461bcd60e51b815260206004820152602560248201527f4552433732313a207472616e736665722066726f6d20696e636f72726563742060448201527f6f776e65720000000000000000000000000000000000000000000000000000006064820152608401620005d0565b6001600160a01b038216620011d65760405162461bcd60e51b8152602060048201526024808201527f4552433732313a207472616e7366657220746f20746865207a65726f2061646460448201527f72657373000000000000000000000000000000000000000000000000000000006064820152608401620005d0565b620011e58383836001620019e7565b826001600160a01b0316620011fa8262000a86565b6001600160a01b031614620012785760405162461bcd60e51b815260206004820152602560248201527f4552433732313a207472616e736665722066726f6d20696e636f72726563742060448201527f6f776e65720000000000000000000000000000000000000000000000000000006064820152608401620005d0565b6000818152600460209081526040808320805473ffffffffffffffffffffffffffffffffffffffff199081169091556001600160a01b0387811680865260038552838620805460001901905590871680865283862080546001019055868652600290945282852080549092168417909155905184937fddf252ad1be2c89b69c2b068fc378daa952ba7f163c4a11628f55a4df523b3ef91a4505050565b61157881111562001352576040517f7db3aba700000000000000000000000000000000000000000000000000000000815260040160405180910390fd5b600d546040517f2f745c59000000000000000000000000000000000000000000000000000000008152336004820152600060248201819052916001600160a01b031690632f745c59906044016020604051808303816000875af1158015620013be573d6000803e3d6000fd5b505050506040513d601f19601f82011682018060405250810190620013e4919062002a88565b90508181146200142b576040517f4a8435fc0000000000000000000000000000000000000000000000000000000081526004810183905260248101829052604401620005d0565b6000620014ac6200143c3062001978565b8051602091820120604080517fff00000000000000000000000000000000000000000000000000000000000000818501526bffffffffffffffffffffffff193060601b16602182015260358101889052605580820193909352815180820390930183526075019052805191012090565b600d546040517f23b872dd0000000000000000000000000000000000000000000000000000000081523360048201526001600160a01b038084166024830152604482018790529293509116906323b872dd906064016020604051808303816000875af115801562001521573d6000803e3d6000fd5b505050506040513d601f19601f8201168201806040525081019062001547919062002aa2565b6200157e576040517f4e643e4d00000000000000000000000000000000000000000000000000000000815260040160405180910390fd5b620006783384620019f5565b600b546001600160a01b0316331462000b9f5760405162461bcd60e51b815260206004820181905260248201527f4f776e61626c653a2063616c6c6572206973206e6f7420746865206f776e65726044820152606401620005d0565b600b80546001600160a01b0383811673ffffffffffffffffffffffffffffffffffffffff19831681179093556040519116919082907f8be0079c531659141344cd1fd0a4f28419497f9722a3daafe3b4186f6b6457e090600090a35050565b816001600160a01b0316836001600160a01b031603620016a85760405162461bcd60e51b815260206004820152601960248201527f4552433732313a20617070726f766520746f2063616c6c6572000000000000006044820152606401620005d0565b6001600160a01b0383811660008181526005602090815260408083209487168084529482529182902080547fffffffffffffffffffffffffffffffffffffffffffffffffffffffffffffff001686151590811790915591519182527f17307eab39ab6107e8899845ad3d59bd9653f200f220920489ca2b5937696c31910160405180910390a3505050565b62001740848484620010c6565b6200174e8484848462001a11565b62000c995760405162461bcd60e51b815260206004820152603260248201527f4552433732313a207472616e7366657220746f206e6f6e20455243373231526560448201527f63656976657220696d706c656d656e74657200000000000000000000000000006064820152608401620005d0565b6060620017cf8262000dcf565b6000828152600a602052604081208054620017ea9062002891565b80601f0160208091040260200160405190810160405280929190818152602001828054620018189062002891565b8015620018695780601f106200183d5761010080835404028352916020019162001869565b820191906000526020600020905b8154815290600101906020018083116200184b57829003601f168201915b5050505050905060006200187c62000cac565b905080516000036200188f575092915050565b815115620018c4578082604051602001620018ac92919062002ac2565b60405160208183030381529060405292505050919050565b620010be8462001ba6565b60006001600160e01b031982167f80ac58cd0000000000000000000000000000000000000000000000000000000014806200193357506001600160e01b031982167f5b5e139f00000000000000000000000000000000000000000000000000000000145b806200047457507f01ffc9a7000000000000000000000000000000000000000000000000000000006001600160e01b031983161462000474565b62000d8b8162001c17565b6060604051806020016200198c90620023ce565b601f1982820381018352601f9091011660408181526001600160a01b03851660208301520160408051601f1981840301815290829052620019d1929160200162002ac2565b6040516020818303038152906040529050919050565b62000c998484848462001c5e565b62000c0782826040518060200160405280600081525062001da9565b60006001600160a01b0384163b1562001b9b576040517f150b7a020000000000000000000000000000000000000000000000000000000081526001600160a01b0385169063150b7a029062001a7190339089908890889060040162002af5565b6020604051808303816000875af192505050801562001aaf575060408051601f3d908101601f1916820190925262001aac9181019062002b33565b60015b62001b67573d80801562001ae0576040519150601f19603f3d011682016040523d82523d6000602084013e62001ae5565b606091505b50805160000362001b5f5760405162461bcd60e51b815260206004820152603260248201527f4552433732313a207472616e7366657220746f206e6f6e20455243373231526560448201527f63656976657220696d706c656d656e74657200000000000000000000000000006064820152608401620005d0565b805181602001fd5b6001600160e01b0319167f150b7a0200000000000000000000000000000000000000000000000000000000149050620010be565b506001949350505050565b606062001bb38262000dcf565b600062001bbf62000cac565b9050600081511162001be1576040518060200160405280600081525062001c10565b8062001bed8462001e38565b60405160200162001c0092919062002ac2565b6040516020818303038152906040525b9392505050565b62001c228162001edf565b6000818152600a60205260409020805462001c3d9062002891565b15905062000d8b576000818152600a6020526040812062000d8b91620023dc565b600181111562001cd75760405162461bcd60e51b815260206004820152603560248201527f455243373231456e756d657261626c653a20636f6e736563757469766520747260448201527f616e7366657273206e6f7420737570706f7274656400000000000000000000006064820152608401620005d0565b816001600160a01b03851662001d365762001d3081600880546000838152600960205260408120829055600182018355919091527ff3f7a9fe364faab93b216da50a3214154f22a0a2b415b23a84c8169e8b636ee30155565b62001d5c565b836001600160a01b0316856001600160a01b03161462001d5c5762001d5c858262001f95565b6001600160a01b03841662001d7c5762001d768162002037565b62001da2565b846001600160a01b0316846001600160a01b03161462001da25762001da28482620020f1565b5050505050565b62001db5838362002137565b62001dc4600084848462001a11565b620006785760405162461bcd60e51b815260206004820152603260248201527f4552433732313a207472616e7366657220746f206e6f6e20455243373231526560448201527f63656976657220696d706c656d656e74657200000000000000000000000000006064820152608401620005d0565b6060600062001e4783620022e5565b600101905060008167ffffffffffffffff81111562001e6a5762001e6a62002664565b6040519080825280601f01601f19166020018201604052801562001e95576020820181803683370190505b5090508181016020015b600019017f3031323334353637383961626364656600000000000000000000000000000000600a86061a8153600a850494508462001e9f57509392505050565b600062001eec8262000a86565b905062001efe816000846001620019e7565b62001f098262000a86565b6000838152600460209081526040808320805473ffffffffffffffffffffffffffffffffffffffff199081169091556001600160a01b0385168085526003845282852080546000190190558785526002909352818420805490911690555192935084927fddf252ad1be2c89b69c2b068fc378daa952ba7f163c4a11628f55a4df523b3ef908390a45050565b6000600162001fa48462000aed565b62001fb0919062002b53565b60008381526007602052604090205490915080821462002004576001600160a01b03841660009081526006602090815260408083208584528252808320548484528184208190558352600790915290208190555b5060009182526007602090815260408084208490556001600160a01b039094168352600681528383209183525290812055565b6008546000906200204b9060019062002b53565b60008381526009602052604081205460088054939450909284908110620020765762002076620028cd565b9060005260206000200154905080600883815481106200209a576200209a620028cd565b6000918252602080832090910192909255828152600990915260408082208490558582528120556008805480620020d557620020d562002b69565b6001900381819060005260206000200160009055905550505050565b6000620020fe8362000aed565b6001600160a01b039093166000908152600660209081526040808320868452825280832085905593825260079052919091209190915550565b6001600160a01b0382166200218f5760405162461bcd60e51b815260206004820181905260248201527f4552433732313a206d696e7420746f20746865207a65726f20616464726573736044820152606401620005d0565b6000818152600260205260409020546001600160a01b031615620021f65760405162461bcd60e51b815260206004820152601c60248201527f4552433732313a20746f6b656e20616c7265616479206d696e746564000000006044820152606401620005d0565b62002206600083836001620019e7565b6000818152600260205260409020546001600160a01b0316156200226d5760405162461bcd60e51b815260206004820152601c60248201527f4552433732313a20746f6b656e20616c7265616479206d696e746564000000006044820152606401620005d0565b6001600160a01b0382166000818152600360209081526040808320805460010190558483526002909152808220805473ffffffffffffffffffffffffffffffffffffffff19168417905551839291907fddf252ad1be2c89b69c2b068fc378daa952ba7f163c4a11628f55a4df523b3ef908290a45050565b6000807a184f03e93ff9f4daa797ed6e38ed64bf6a1f01000000000000000083106200232f577a184f03e93ff9f4daa797ed6e38ed64bf6a1f010000000000000000830492506040015b6d04ee2d6d415b85acef810000000083106200235c576d04ee2d6d415b85acef8100000000830492506020015b662386f26fc1000083106200237b57662386f26fc10000830492506010015b6305f5e100831062002394576305f5e100830492506008015b6127108310620023a957612710830492506004015b60648310620023bc576064830492506002015b600a8310620004745760010192915050565b6102a58062002b8083390190565b508054620023ea9062002891565b6000825580601f10620023fb575050565b601f01602090049060005260206000209081019062000d8b91905b808211156200242c576000815560010162002416565b5090565b6001600160e01b03198116811462000d8b57600080fd5b6000602082840312156200245a57600080fd5b813562001c108162002430565b60005b83811015620024845781810151838201526020016200246a565b50506000910152565b60008151808452620024a781602086016020860162002467565b601f01601f19169290920160200192915050565b60208152600062001c1060208301846200248d565b600060208284031215620024e357600080fd5b5035919050565b80356001600160a01b03811681146200250257600080fd5b919050565b600080604083850312156200251b57600080fd5b6200252683620024ea565b946020939093013593505050565b60008083601f8401126200254757600080fd5b50813567ffffffffffffffff8111156200256057600080fd5b6020830191508360208260051b85010111156200257c57600080fd5b9250929050565b6000806000604084860312156200259957600080fd5b833567ffffffffffffffff811115620025b157600080fd5b620025bf8682870162002534565b9094509250620025d4905060208501620024ea565b90509250925092565b600080600060608486031215620025f357600080fd5b620025fe84620024ea565b92506200260e60208501620024ea565b9150604084013590509250925092565b600080602083850312156200263257600080fd5b823567ffffffffffffffff8111156200264a57600080fd5b620026588582860162002534565b90969095509350505050565b634e487b7160e01b600052604160045260246000fd5b600067ffffffffffffffff8084111562002698576200269862002664565b604051601f8501601f19908116603f01168101908282118183101715620026c357620026c362002664565b81604052809350858152868686011115620026dd57600080fd5b858560208301376000602087830101525050509392505050565b6000602082840312156200270a57600080fd5b813567ffffffffffffffff8111156200272257600080fd5b8201601f810184136200273457600080fd5b620010be848235602084016200267a565b6000602082840312156200275857600080fd5b62001c1082620024ea565b600080604083850312156200277757600080fd5b823591506200278960208401620024ea565b90509250929050565b801515811462000d8b57600080fd5b60008060408385031215620027b557600080fd5b620027c083620024ea565b91506020830135620027d28162002792565b809150509250929050565b60008060008060808587031215620027f457600080fd5b620027ff85620024ea565b93506200280f60208601620024ea565b925060408501359150606085013567ffffffffffffffff8111156200283357600080fd5b8501601f810187136200284557600080fd5b62002856878235602084016200267a565b91505092959194509250565b600080604083850312156200287657600080fd5b6200288183620024ea565b91506200278960208401620024ea565b600181811c90821680620028a657607f821691505b602082108103620028c757634e487b7160e01b600052602260045260246000fd5b50919050565b634e487b7160e01b600052603260045260246000fd5b634e487b7160e01b600052601160045260246000fd5b600060001982036200290f576200290f620028e3565b5060010190565b6020815281602082015260007f07ffffffffffffffffffffffffffffffffffffffffffffffffffffffffffffff8311156200295057600080fd5b8260051b80856040850137919091016040019392505050565b601f8211156200067857600081815260208120601f850160051c81016020861015620029925750805b601f850160051c820191505b81811015620029b3578281556001016200299e565b505050505050565b815167ffffffffffffffff811115620029d857620029d862002664565b620029f081620029e9845462002891565b8462002969565b602080601f83116001811462002a28576000841562002a0f5750858301515b600019600386901b1c1916600185901b178555620029b3565b600085815260208120601f198616915b8281101562002a595788860151825594840194600190910190840162002a38565b508582101562002a785787850151600019600388901b60f8161c191681555b5050505050600190811b01905550565b60006020828403121562002a9b57600080fd5b5051919050565b60006020828403121562002ab557600080fd5b815162001c108162002792565b6000835162002ad681846020880162002467565b83519083019062002aec81836020880162002467565b01949350505050565b60006001600160a01b0380871683528086166020840152508360408301526080606083015262002b2960808301846200248d565b9695505050505050565b60006020828403121562002b4657600080fd5b815162001c108162002430565b81810381811115620004745762000474620028e3565b634e487b7160e01b600052603160045260246000fdfe60a060405234801561001057600080fd5b506040516102a53803806102a583398101604081905261002f91610040565b6001600160a01b0316608052610070565b60006020828403121561005257600080fd5b81516001600160a01b038116811461006957600080fd5b9392505050565b60805161021b61008a6000396000605d015261021b6000f3fe608060405234801561001057600080fd5b506004361061002b5760003560e01c8063beabacc814610030575b600080fd5b61004361003e366004610180565b610045565b005b3373ffffffffffffffffffffffffffffffffffffffff7f000000000000000000000000000000000000000000000000000000000000000016146100b4576040517f4e643e4d00000000000000000000000000000000000000000000000000000000815260040160405180910390fd5b6040517fa9059cbb00000000000000000000000000000000000000000000000000000000815273ffffffffffffffffffffffffffffffffffffffff83811660048301526024820183905284919082169063a9059cbb906044016020604051808303816000875af115801561012c573d6000803e3d6000fd5b505050506040513d601f19601f8201168201806040525081019061015091906101bc565b5050505050565b803573ffffffffffffffffffffffffffffffffffffffff8116811461017b57600080fd5b919050565b60008060006060848603121561019557600080fd5b61019e84610157565b92506101ac60208501610157565b9150604084013590509250925092565b6000602082840312156101ce57600080fd5b815180151581146101de57600080fd5b939250505056fea26469706673582212203647f9c9c63e7284aca1945fc9db58a3824de675bcffed023f16750b9622bbe264736f6c63430008130033a26469706673582212202dd84d14b38b4807fe772962ab16e51321a5a96cd98f23338233f67c5d93ae8a64736f6c63430008130033697066733a2f2f516d4e6448354b337248756d4e7a71764548714c735a394d4373594a786e50764e5a61534c59373577386f7238542f",
    "linkReferences": {},
    "deployedLinkReferences": {}
}